:0E0000000C9441010C945C040C945C040C9470
:10000E0047040C9400000C9400000C9400000C9417
:10001E007A040C9400000C9400000C9400000C94D4
:10002E00BB030C9400000C9428030C9400000C9459
:10003E0000000C9400000C9400000C9400000C9432
:10004E0000000C9400001027E80364000A00010071
:10005E000010000110000100000001000000436CC0
:10006E00656172205375636365737366756C0020EA
:10007E002052656D6F7465207365742021002020F9
:10008E002020204C4F434B2100556E6C6F636B202C
:10009E0074616720436F64653A0020202020554E1E
:1000AE004C4F434B20210020446574656374656496
:1000BE0020436F64653A002054616720636F646566
:1000CE002053617665642100202054616720436CC3
:1000DE006561726564210020524649442062617355
:1000EE00656420436172005365637572697479208B
:1000FE002053797374656D0020202057726F6E67E0
:10010E002074616721002020205365742052656D94
:10011E006F7465002020436C6561722052656D6FAF
:10012E007465002020536574205246494420546162
:10013E00670020436C656172205246494420546129
:10014E00670020526561642052464944205461671D
:10015E00002020202020204C6F636B0020202020C8
:10016E0020556E6C6F636B00205072657373204C5C
:10017E006F636B206B6579002020204F6E2020521C
:10018E00656D6F7465002020202077616974652E7F
:10019E002E2E00576169746520666F722054616758
:1001AE002E2E2E0080C001002D4E414E00494E468F
:1001BE000000010002006600110060026C000F00DA
:1001CE0071027D000B0080028C0011008B029700E3
:1001DE000D009C02A8001000A902B5001100B90282
:1001EE00C5000F00CA02D6001000D902E5001100AA
:1001FE00E902F5000D00FA02A8000E000703060141
:10020E000E00150314010F00230322010F00320309
:10021E0031011000410340010F00510350010B004A
:10022E0060035F010C006B036A0110007703760117
:10023E000E00870386010D00950394011100A203A1
:10024E00A1011100B303A1011100C403A1010B0010
:10025E00D5038C001100E00397000D00F103A800F8
:10026E0004000600680002001A04B2010100200416
:10027E00B4010000F894EE27ECBBF1E0F5BFE5BF4A
:10028E00F8E1F1BDE1BD8DE0A2E0BB27ED938A95CB
:10029E00E9F780E098E0A0E6ED930197E9F7E0EC4E
:1002AE00F1E085919591009761F0A591B59105903A
:1002BE001590BF01F00105900D920197E1F7FB013A
:1002CE00F0CFEFE5EDBFE8E0EEBFC0E6D2E00C9474
:1002DE009304E1E0EA93EFE0EA937ED1E1E1EA9361
:1002EE00EDE3EA9379D1EDE2EA93EEE1EA9374D18C
:1002FE00ECE20E944707EAE2EA93EDE8EA936CD15A
:10030E00EBE2EA93EEE3EA9367D1E5E1EA93E0E408
:10031E00EA9362D1E0E008951A93E4E10E944C075B
:10032E00E12FE37019F40E94510772D119910895CB
:10033E000E94510779D1089562970E946B080E941E
:10034E005607EA93E7E0EA9347D10E94510760D13E
:10035E00E88DEC83ECE0EA93FE013596FA93EA938E
:10036E00E1E0EA93FE013896FA93EA93EDB7FEB711
:10037E003197FA93EA933F932F9369D02F913F9140
:10038E001E2F103029F4E0E1F0E0E217F30709F038
:10039E000AC0EC81AE89BF89EC93ED81AE89BF892D
:1003AE001196EC9301C01EEFE12F0E947208699620
:1003BE00089562970E94690830E00E9456070E94D5
:1003CE004707EEE00E945D07E3E9EE83E0E2EF838C
:1003DE00ECE0EA93FE013796FA93EA93E2E0EA93B1
:1003EE00FE013A96FA93EA93EDB7FEB73197FA9378
:1003FE00EA935F934F932BD04F915F911E2F103046
:10040E00F1F400E00430A0F40E946207BF01A88D51
:10041E00B98DEA0FFB1F0F01FB010E946507D0018A
:10042E00EC930E9462070E9465073E270F5FEACF9A
:10043E000E9462070E946507E31709F01EEFEEE0C7
:10044E000E946B07E12F0E9470086A96089522970A
:10045E000E9469081EEF00E030E0EF85F0E0EE301C
:10046E00A0E0FA0719F402E130E106C0EC30A0E09A
:10047E00FA0711F407E730E3E2E0EA93E02FE068D1
:10048E00EA93AAD0E4E00E945D07E1E00E944707EC
:10049E00EAE00E946B07E0E0EE83EF83EC850E94BA
:1004AE00700788F4E9E0EA93EF81F885AE85BF85A1
:1004BE00AE0FBF1FEC91EA938FD0EE81FF81319684
:1004CE00EE83FF83EBCFE1E0EA93E889EA9384D0F1
:1004DE00AF85AC3019F4EDE00E946B07E8E5F2E071
:1004EE00EE83FF83E4E0EA9384D05E2FEE81FF81FA
:1004FE003197EE83FF83AE81BF81109729F050FDB7
:10050E0003C0E32FE52309F001C0ECCFEDE00E941C
:10051E005D07EE81FF81309711F40C94E802E6E05E
:10052E00EA9367D0EB7111F00C94E70210E0E02F24
:10053E00E523E17009F01FEFAF85AC3011F00C949C
:10054E00E602EAE0EA9355D05E2FECE0EA9351D052
:10055E00E7702E2F203059F0E52FF0E031970E94F2
:10056E004508DF01E22FF0E0EA0FFB1F03C0E8E0D1
:10057E00E59FF001A885B985ED93FC93503009F401
:10058E0051E0533108F052E1E0E0EE83EF83E52FC6
:10059E000E947007A0F4EE81FF81AA85BB85EA0F49
:1005AE00FB1FFF93EF93E9E0EA9323D0AF91BF9146
:1005BE00EC93EE81FF813196EE83FF83E8CF01C08D
:1005CE001EEFECE00E946B07E1E00E944707E12F6F
:1005DE000E94700860960895C498E981EE0FEA9320
:1005EE000E944007E881EA930E944007C49A0C9447
:1005FE00A406C498E881EE0FE068EA930E944007D3
:10060E00E0E0EA930E944007E883C49A0C94450701
:10061E001A93EA810E944C07E9811E2BEA81EA9324
:10062E001A93DADF0C94DD061A93EA810E944C07C6
:10063E00E981E0951E23EA81EA931A93CDDF0C94AB
:10064E00DD060E9476071A930A931BB10CB1E12FB7
:10065E00EC7189F4EB2DB394F0E0EE5EFB4F00836A
:10066E00E8E0EB1509F4BB24D394E8E0ED1519F49A
:10067E00DD24689421F8A0911204AA3241F4A091CD
:10068E001304A33621F4A0911404A33609F00CC070
:10069E000E94A606E0E6F2E00E948507ECEDF5E08A
:1006AE000E9489076A945BC0A0911204AA3221F4B9
:1006BE00A0911304A73709F007C00E94A606E1E730
:1006CE00F2E00E9485074CC0A0911204A33211F0F3
:1006DE000C94B703A0911404A23029F4A0E020FCDE
:1006EE00A1E0A03009F025C0E0E8F2E00E94850705
:1006FE000E948D070E949207EBE8F2E00E948507A8
:10070E000E949C070E94A2070E94A7070E94B3079F
:10071E000E94B9070E94A7070E94BE070E94C40745
:10072E000E94A7070E94C9070E94CF070E94A70731
:10073E0017C0A0911404A43011F420FC01C010C005
:10074E0078D20E94A606ECE9F2E00E9485070E948C
:10075E00D407E8EEF3E00E948907E1E06E2E8CD11B
:10076E00198108812696B1C00E9476070E94DF0784
:10077E0051F0AFDD0E94EA07DBDD0E94EA07CCDD17
:10078E000E94EA076DC00E94ED0711F00C94370429
:10079E000E94A606E9EAF2E00E9485070E949C07E5
:1007AE00E091FE030E94F6070E94B307E091FF035B
:1007BE000E94F6070E94BE07E09100040E94F60711
:1007CE000E94C907E09101040E94F60738D2E0E0CA
:1007DE00E3BF0E940108E1E0E715E9F4E091FE03B2
:1007EE00A0E0B0E00E940408A1E0B0E0E091FF03B9
:1007FE000E940408A2E0B0E0E09100040E94040808
:10080E00A3E0B0E0E09101040E9404080E94A60655
:10081E00E9EBF2E01BC0E2E0E71501F5A0E0B0E085
:10082E00E0E00E940408A1E0B0E0E0E00E940408CD
:10083E00A2E0B0E0E0E00E940408A3E0B0E0E0E057
:10084E000E9404080E94A606EAECF2E0FA93EA93EC
:10085E000E94D10677240E9401086A946A940CD1F2
:10086E00E0E9F1E08E169F0620F4F40131964F0177
:10087E0005C00E94090877246A94FED0249625C0EC
:10088E000A921A92FA926A937A938A939A93AA93F5
:10089E00BA93EA93FA93EFB7EA930E940908E4EF4A
:1008AE00F1E00E948907E8D010C00A921A92FA92DB
:1008BE006A937A938A939A93AA93BA93EA93FA9342
:1008CE00EFB7EA93CCD0D1D0ABD1E991EFBFF9918C
:1008DE00E991B991A9919991899179916991F9903B
:1008EE00199009901895AA93EA93FA93EFB7EA93A1
:1008FE00EAB5FBB5E43FA1E0FA0720F4EAB5FBB593
:10090E00319602C0E0EAF0E0FBBDEABDE991EFBF2F
:10091E00F991E991A99118952497E0E0EBBBEABB18
:10092E00D79AE8BBE7BBB89AB99ABB9ABC9ABD9A5C
:10093E00BF9AC398E5BBE4BBE2BBE1BB8D9A8E9A2E
:10094E008F9A0E940908E0E0EDBDECBDE7BDE6BD63
:10095E00E9BDE8BDE2BDE5BDE4BDE3BDEBBFEAE048
:10096E00E5BFE0E0E4BFEABFE1E1E9BFE0E0EBB9FB
:10097E00E8E9EAB9E6E0E0BDE0BDE2E8E9B9E0E8C1
:10098E00E8B9E0E0E0BFE6B9E3E5EDB9E0E0EEB9E5
:10099E00E6BF7894C3980E940E08C39A0E940E0870
:1009AE0098DC5E2EE0E1EA930E94E0060E94A60625
:1009BE00E9EDF2E00E9485070E949C07E9EEF2E065
:1009CE000E94850755D020FE45C0979B02C0979880
:1009DE0001C0979A0E94DF0751F07BDC0E940E083F
:1009EE00A7DC0E940E0898DC0E940E0833C00E94FD
:1009FE00ED0781F50E94A207A091FE03EA1791F47C
:100A0E000E94B907A091FF03EA1761F40E94C40780
:100A1E00A0910004EA1731F40E94CF07A0910104BF
:100A2E00EA1709F012C005D11AD01FD0E0EEEABFC6
:100A3E0086D1EAEFF2E00E948507E89420F89798B5
:100A4E002DD10E94010818D005C079D1E7E0F3E05E
:100A5E000E948507B8CFFFCFEBB7E0640BC0EBB7B2
:100A6E00E07A08C0EBB7E06805C0EBB7E07602C0ED
:100A7E00EBB7E062EBBF0895B29B49C00E9411082C
:100A8E00E130A0E0FA0731F4E5E1F3E00E948507DA
:100A9E0063943CC0E230A0E0FA0731F4E3E2F3E005
:100AAE000E948507639432C0E330A0E0FA0731F468
:100ABE00E2E3F3E00E948507639428C0E430A0E0EF
:100ACE00FA0731F4E1E4F3E00E94850763941EC057
:100ADE00E530A0E0FA0731F4E1E5F3E00E94850786
:100AEE00639414C0E630A0E0FA0731F4E0E6F3E0D8
:100AFE000E94850763940AC0E730A0E0FA0731F43C
:100B0E00EBE6F3E00E948507E1E06E2E05C0E4EF10
:100B1E00F1E00E94890701D0089524970E941108E0
:100B2E00E230A0E0FA0769F4E7E7F3E00E948507F8
:100B3E000E949C07E7E8F3E00E948507E0E3ECB92A
:100B4E006DC0E330A0E0FA0739F4E5E9F3E00E9466
:100B5E008507E6E3ECB962C0E430A0E0FA0751F491
:100B6E00E2EAF3E00E94850788249924E1E00E94DE
:100B7E00160854C0E530A0E0FA0751F4E3EBF3E0B9
:100B8E000E94850788249924E2E00E94160846C038
:100B9E00E630A0E0FA0769F4E4ECF3E00E94850782
:100BAE00882499247724E9B7E160E9BFE5E0E3BF43
:100BBE0035C0E730A0E0FA0729F5E5EDF3E00E9435
:100BCE0085070E948D070E949207E0EEF3E00E94D7
:100BDE0085070E949C070E94A2070E94F6070E94AA
:100BEE00B3070E94B9070E94F6070E94BE070E9433
:100BFE00C4070E94F6070E94C9070E94CF070E94F1
:100C0E00F6070CC0E130A0E0FA0741F412D0E1EF94
:100C1E00F3E00E9485070E94D4072EDF24960895E4
:100C2E000E941D08E0EAF0E0FBBDEABDE9B7E16114
:100C3E0004C00E942208E9B7EE7EE9BF0895969A95
:100C4E00E0E0F0E0FDBDECBD0E941D08E0E5F0E047
:100C5E00FBBDEABDE9B7EE7EE9BFECE2F1E00E9432
:100C6E00890796980E942208969A0E940E080E9462
:100C7E001D08E0E5F0E0FBBDEABDECE2F1E00E940C
:100C8E00890796980E9422080895DF98C09A0E94BC
:100C9E00EA07C198DF9AEEE1F0E008C0DF98C0984D
:100CAE000E94EA07C19ADF9AE6E4F0E0FA93EA932B
:100CBE000E943908DF980895E881E07111F0AC9A2E
:100CCE0001C0AC98E881E07211F0AD9A01C0AD9808
:100CDE00E881E07411F0AE9A01C0AE98E881E07838
:100CEE0011F0AF9A01C0AF988BE08A95F1F7AA9AEE
:100CFE008BE18A95F1F7AA988BE18A95F1F70C941E
:100D0E004507E881EA93D8DFE881E295E883E88138
:100D1E00EA93D2DF88EC90E00197F1F70C94450747
:100D2E00E881F0E0E65EFB4FE081A981EA0FEA93ED
:100D3E00E8DFC980E881E0931E0422960895E2E080
:100D4E000E942A08ECE0EA93DCDFE1E00E942A0828
:100D5E00E0E0E0931E04CE2E0895A881AA3021F083
:100D6E00E0911F04CE1670F0E0E0EA93E0911E04CD
:100D7E00EF5FE0931E04EA93D3DFA881AA3011F44B
:100D8E000C944507C394A89AE881EA93BADFA89811
:100D9E000C9445071A93A981BA81ED91A983BA8360
:100DAE001E2FE03019F01A93D8DFF5CF1881239655
:100DBE000895A49AA59AA69AA79AA29AA09AA19AD9
:100DCE00AA98A898A998E881E0931F04E058E093A8
:100DDE001C04E881E054E0931D04E4E1F0E00E947D
:100DEE0089070E9430080E9430080E943008E0E215
:100DFE00EA9362DF80E991E00197F1F7E8E2EA9386
:100E0E0080DFE4E0EA937DDFE5E8EA937ADFE6E06F
:100E1E00EA9377DF94DF0C944507A991B991E99194
:100E2E00F99130962AF4E095F09531966DE26D9336
:100E3E00E89480E197E20DD088EE93E00AD084E644
:100E4E00992707D08AE005D06E2F10D066276C93B5
:100E5E0008956627E817F90720F06395E81BF90B4C
:100E6E00C9F7662311F416F008956894605D6D93CA
:100E7E000895E881EFB9779BFECFEFB121960895E3
:100E8E00EA93E0E0EA930C94F302EA930E940003E3
:100E9E001E2F0895E4E1EA93E3E0EA930895E8E073
:100EAE00EA93EA930E941B03EDE00895EA93E0E8CB
:100EBE00EA930C941B03E02FF0E00895DE011696E2
:100ECE00AE0FBF1FEC910895EA93E0E8EA930C94FD
:100EDE000F03AE81BF81F0E0AE17BF0708950A92EF
:100EEE001A92FA926A937A938A939A93AA93BA93DE
:100EFE00EA93FA93EFB7EA9324970895FA93EA9355
:100F0E000C94D106FA93EA930C9439080E944C067D
:100F1E00EAE0F0E0F7CFE0EEEABF689420F80E9436
:100F2E0033050E9439050C94A606E0E0EA93E1E051
:100F3E00EA930C949706A0E0B0E00E944C08089546
:100F4E00F0E0FA93EA93FE013496FA93EA930E9444
:100F5E001407FE013296D2CFE4E0EA93E1E0EA9381
:100F6E000C949706A1E0B0E00E944C080895E8E0CA
:100F7E00EA93E1E0EA930C949706A2E0B0E00E94B7
:100F8E004C080895ECE0EA93E1E0EA930C9497069E
:100F9E00A3E0B0E00E944C0808959798E89420F8DA
:100FAE00E0EEEABF0E9436050E943C050C94550601
:100FBE00E2E5EA93EEEFF3E0FA93EA930E94A301DF
:100FCE005E2E55200895E1E0F0E09CCFEEEFF3E0C9
:100FDE00FA93EA930E94E0015E2E55200895F0E008
:100FEE00FA93EA93FE013296FA93EA930E9414075B
:100FFE00FE0184CFE0EDF7E085CF0E945808EAE0CD
:10100E00F0E080CFE0E0E3BFE2BFECBF0895E4E69E
:10101E00F0E078CF0E94A606E62DF0E008957E2E31
:10102E00E9B7E160E9BFE5E0E3BF0895E0E4EFBDB5
:10103E00EBE0EEBD0895E0E0EFBDEEBDE0E0F0E0E8
:10104E00FBBDEABD0895EA930E948806E3E0F0E056
:10105E0059CFE0E3EA930E94630680E991E001979D
:10106E00F1F70895E991F991309639F080EA9FE011
:10107E000197F1F7A8953197C9F70895EE0FFF1F65
:10108E00EE0FFF1FEE0FFF1F0895E199FECFFF93A6
:10109E00FFB7F894AEBBBFBBE09AEDB3FFBFFF91B5
:1010AE000895E19B02C0A895FCCF9FB7F894AEBB04
:1010BE00BFBBE09A8DB3E81719F0EDBBE29AE19A47
:1010CE009FBF08955A934A933A932A931A930A9379
:1010DE0008955D814C813B812A8119810881089593
:00000001FF
